{
  "contractName": "Supplier",
  "abi": [
    {
      "constant": true,
      "inputs": [],
      "name": "total_batches",
      "outputs": [
        {
          "name": "",
          "type": "uint256"
        }
      ],
      "payable": false,
      "stateMutability": "view",
      "type": "function"
    },
    {
      "constant": true,
      "inputs": [
        {
          "name": "",
          "type": "address"
        }
      ],
      "name": "workers",
      "outputs": [
        {
          "name": "fname",
          "type": "string"
        },
        {
          "name": "lname",
          "type": "string"
        },
        {
          "name": "addr",
          "type": "address"
        }
      ],
      "payable": false,
      "stateMutability": "view",
      "type": "function"
    },
    {
      "constant": true,
      "inputs": [],
      "name": "manager",
      "outputs": [
        {
          "name": "",
          "type": "address"
        }
      ],
      "payable": false,
      "stateMutability": "view",
      "type": "function"
    },
    {
      "constant": true,
      "inputs": [
        {
          "name": "",
          "type": "uint256"
        }
      ],
      "name": "designs",
      "outputs": [
        {
          "name": "id",
          "type": "uint256"
        },
        {
          "name": "name",
          "type": "string"
        },
        {
          "name": "price",
          "type": "uint256"
        },
        {
          "name": "image_hash",
          "type": "string"
        }
      ],
      "payable": false,
      "stateMutability": "view",
      "type": "function"
    },
    {
      "constant": true,
      "inputs": [],
      "name": "total_design",
      "outputs": [
        {
          "name": "",
          "type": "uint256"
        }
      ],
      "payable": false,
      "stateMutability": "view",
      "type": "function"
    },
    {
      "constant": true,
      "inputs": [
        {
          "name": "",
          "type": "uint256"
        }
      ],
      "name": "batches",
      "outputs": [
        {
          "name": "uid",
          "type": "uint256"
        },
        {
          "name": "color",
          "type": "string"
        },
        {
          "name": "area",
          "type": "uint256"
        },
        {
          "name": "image_hash",
          "type": "string"
        },
        {
          "name": "cur_step",
          "type": "string"
        },
        {
          "name": "completed",
          "type": "bool"
        }
      ],
      "payable": false,
      "stateMutability": "view",
      "type": "function"
    },
    {
      "constant": true,
      "inputs": [],
      "name": "supp_name",
      "outputs": [
        {
          "name": "",
          "type": "string"
        }
      ],
      "payable": false,
      "stateMutability": "view",
      "type": "function"
    },
    {
      "constant": true,
      "inputs": [
        {
          "name": "",
          "type": "uint256"
        }
      ],
      "name": "workers_lookup",
      "outputs": [
        {
          "name": "",
          "type": "address"
        }
      ],
      "payable": false,
      "stateMutability": "view",
      "type": "function"
    },
    {
      "inputs": [
        {
          "name": "_name",
          "type": "string"
        },
        {
          "name": "_manager",
          "type": "address"
        }
      ],
      "payable": false,
      "stateMutability": "nonpayable",
      "type": "constructor"
    },
    {
      "constant": false,
      "inputs": [
        {
          "name": "_fname",
          "type": "string"
        },
        {
          "name": "_lname",
          "type": "string"
        },
        {
          "name": "_addr",
          "type": "address"
        }
      ],
      "name": "add_worker",
      "outputs": [],
      "payable": false,
      "stateMutability": "nonpayable",
      "type": "function"
    },
    {
      "constant": true,
      "inputs": [],
      "name": "get_num_workers",
      "outputs": [
        {
          "name": "",
          "type": "uint256"
        }
      ],
      "payable": false,
      "stateMutability": "view",
      "type": "function"
    },
    {
      "constant": false,
      "inputs": [
        {
          "name": "_name",
          "type": "string"
        },
        {
          "name": "_price",
          "type": "uint256"
        },
        {
          "name": "_image_hash",
          "type": "string"
        }
      ],
      "name": "add_design",
      "outputs": [],
      "payable": false,
      "stateMutability": "nonpayable",
      "type": "function"
    },
    {
      "constant": false,
      "inputs": [
        {
          "name": "_color",
          "type": "string"
        },
        {
          "name": "_area",
          "type": "uint256"
        }
      ],
      "name": "create_batch",
      "outputs": [],
      "payable": false,
      "stateMutability": "nonpayable",
      "type": "function"
    },
    {
      "constant": false,
      "inputs": [
        {
          "name": "batch_id",
          "type": "uint256"
        }
      ],
      "name": "transfer_to_tanning",
      "outputs": [],
      "payable": false,
      "stateMutability": "nonpayable",
      "type": "function"
    },
    {
      "constant": false,
      "inputs": [
        {
          "name": "batch_id",
          "type": "uint256"
        }
      ],
      "name": "transfer_to_QC",
      "outputs": [],
      "payable": false,
      "stateMutability": "nonpayable",
      "type": "function"
    },
    {
      "constant": false,
      "inputs": [
        {
          "name": "batch_id",
          "type": "uint256"
        },
        {
          "name": "img_hash",
          "type": "string"
        }
      ],
      "name": "quality_check",
      "outputs": [],
      "payable": false,
      "stateMutability": "nonpayable",
      "type": "function"
    }
  ],
  "bytecode": "0x608060405260006006553480156200001657600080fd5b5060405162001cbd38038062001cbd833981018060405260408110156200003c57600080fd5b8101908080516401000000008111156200005557600080fd5b828101905060208101848111156200006c57600080fd5b81518560018202830111640100000000821117156200008a57600080fd5b5050929190602001805190602001909291905050508160009080519060200190620000b792919062000101565b5080600160006101000a81548173ffffffffffffffffffffffffffffffffffffffff021916908373ffffffffffffffffffffffffffffffffffffffff1602179055505050620001b0565b828054600181600116156101000203166002900490600052602060002090601f016020900481019282601f106200014457805160ff191683800117855562000175565b8280016001018555821562000175579182015b828111156200017457825182559160200191906001019062000157565b5b50905062000184919062000188565b5090565b620001ad91905b80821115620001a95760008160009055506001016200018f565b5090565b90565b611afd80620001c06000396000f3fe6080604052600436106100db576000357c0100000000000000000000000000000000000000000000000000000000900463ffffffff1680630e752ff4146100e057806316c5dc6c1461011b5780634048a25714610146578063481c6a75146102af578063659f993f146103065780636b16966514610331578063868b86ed146104b05780638b0d650d1461061957806390ac11a3146106eb578063947ca8a1146108195780639dc9b601146108eb578063b2af455c14610916578063b32c4d8d14610951578063b3f5450014610af6578063c7648b7214610b86575b600080fd5b3480156100ec57600080fd5b506101196004803603602081101561010357600080fd5b8101908080359060200190929190505050610c01565b005b34801561012757600080fd5b50610130610d14565b6040518082815260200191505060405180910390f35b34801561015257600080fd5b506101956004803603602081101561016957600080fd5b81019080803573ffffffffffffffffffffffffffffffffffffffff169060200190929190505050610d1a565b6040518080602001806020018473ffffffffffffffffffffffffffffffffffffffff1673ffffffffffffffffffffffffffffffffffffffff168152602001838103835286818151815260200191508051906020019080838360005b8381101561020b5780820151818401526020810190506101f0565b50505050905090810190601f1680156102385780820380516001836020036101000a031916815260200191505b50838103825285818151815260200191508051906020019080838360005b83811015610271578082015181840152602081019050610256565b50505050905090810190601f16801561029e5780820380516001836020036101000a031916815260200191505b509550505050505060405180910390f35b3480156102bb57600080fd5b506102c4610e94565b604051808273ffffffffffffffffffffffffffffffffffffffff1673ffffffffffffffffffffffffffffffffffffffff16815260200191505060405180910390f35b34801561031257600080fd5b5061031b610eba565b6040518082815260200191505060405180910390f35b34801561033d57600080fd5b506104ae6004803603606081101561035457600080fd5b810190808035906020019064010000000081111561037157600080fd5b82018360208201111561038357600080fd5b803590602001918460018302840111640100000000831117156103a557600080fd5b91908080601f016020809104026020016040519081016040528093929190818152602001838380828437600081840152601f19601f8201169050808301925050505050505091929192908035906020019064010000000081111561040857600080fd5b82018360208201111561041a57600080fd5b8035906020019184600183028401116401000000008311171561043c57600080fd5b91908080601f016020809104026020016040519081016040528093929190818152602001838380828437600081840152601f19601f820116905080830192505050505050509192919290803573ffffffffffffffffffffffffffffffffffffffff169060200190929190505050610ec7565b005b3480156104bc57600080fd5b50610617600480360360608110156104d357600080fd5b81019080803590602001906401000000008111156104f057600080fd5b82018360208201111561050257600080fd5b8035906020019184600183028401116401000000008311171561052457600080fd5b91908080601f016020809104026020016040519081016040528093929190818152602001838380828437600081840152601f19601f820116905080830192505050505050509192919290803590602001909291908035906020019064010000000081111561059157600080fd5b8201836020820111156105a357600080fd5b803590602001918460018302840111640100000000831117156105c557600080fd5b91908080601f016020809104026020016040519081016040528093929190818152602001838380828437600081840152601f19601f820116905080830192505050505050509192919290505050611027565b005b34801561062557600080fd5b506106e96004803603604081101561063c57600080fd5b81019080803590602001909291908035906020019064010000000081111561066357600080fd5b82018360208201111561067557600080fd5b8035906020019184600183028401116401000000008311171561069757600080fd5b91908080601f016020809104026020016040519081016040528093929190818152602001838380828437600081840152601f19601f8201169050808301925050505050505091929192905050506110c7565b005b3480156106f757600080fd5b506107246004803603602081101561070e57600080fd5b81019080803590602001909291905050506111df565b604051808581526020018060200184815260200180602001838103835286818151815260200191508051906020019080838360005b83811015610774578082015181840152602081019050610759565b50505050905090810190601f1680156107a15780820380516001836020036101000a031916815260200191505b50838103825284818151815260200191508051906020019080838360005b838110156107da5780820151818401526020810190506107bf565b50505050905090810190601f1680156108075780820380516001836020036101000a031916815260200191505b50965050505050505060405180910390f35b34801561082557600080fd5b506108e96004803603604081101561083c57600080fd5b810190808035906020019064010000000081111561085957600080fd5b82018360208201111561086b57600080fd5b8035906020019184600183028401116401000000008311171561088d57600080fd5b91908080601f016020809104026020016040519081016040528093929190818152602001838380828437600081840152601f19601f8201169050808301925050505050505091929192908035906020019092919050505061133f565b005b3480156108f757600080fd5b5061090061155e565b6040518082815260200191505060405180910390f35b34801561092257600080fd5b5061094f6004803603602081101561093957600080fd5b8101908080359060200190929190505050611564565b005b34801561095d57600080fd5b5061098a6004803603602081101561097457600080fd5b8101908080359060200190929190505050611677565b6040518087815260200180602001868152602001806020018060200185151515158152602001848103845289818151815260200191508051906020019080838360005b838110156109e85780820151818401526020810190506109cd565b50505050905090810190601f168015610a155780820380516001836020036101000a031916815260200191505b50848103835287818151815260200191508051906020019080838360005b83811015610a4e578082015181840152602081019050610a33565b50505050905090810190601f168015610a7b5780820380516001836020036101000a031916815260200191505b50848103825286818151815260200191508051906020019080838360005b83811015610ab4578082015181840152602081019050610a99565b50505050905090810190601f168015610ae15780820380516001836020036101000a031916815260200191505b50995050505050505050505060405180910390f35b348015610b0257600080fd5b50610b0b611897565b6040518080602001828103825283818151815260200191508051906020019080838360005b83811015610b4b578082015181840152602081019050610b30565b50505050905090810190601f168015610b785780820380516001836020036101000a031916815260200191505b509250505060405180910390f35b348015610b9257600080fd5b50610bbf60048036036020811015610ba957600080fd5b8101908080359060200190929190505050611935565b604051808273ffffffffffffffffffffffffffffffffffffffff1673ffffffffffffffffffffffffffffffffffffffff16815260200191505060405180910390f35b6040805190810160405280600281526020017f5143000000000000000000000000000000000000000000000000000000000000815250600582815481101515610c4657fe5b90600052602060002090600702016005019080519060200190610c6a929190611973565b506040805190810160405280600481526020017f7472756500000000000000000000000000000000000000000000000000000000815250600582815481101515610cb057fe5b906000526020600020906007020160040160405180807f506f6c697368696e670000000000000000000000000000000000000000000000815250600901905090815260200160405180910390209080519060200190610d10929190611973565b5050565b60025481565b6004602052806000526040600020600091509050806000018054600181600116156101000203166002900480601f016020809104026020016040519081016040528092919081815260200182805460018160011615610100020316600290048015610dc65780601f10610d9b57610100808354040283529160200191610dc6565b820191906000526020600020905b815481529060010190602001808311610da957829003601f168201915b505050505090806001018054600181600116156101000203166002900480601f016020809104026020016040519081016040528092919081815260200182805460018160011615610100020316600290048015610e645780601f10610e3957610100808354040283529160200191610e64565b820191906000526020600020905b815481529060010190602001808311610e4757829003601f168201915b5050505050908060020160009054906101000a900473ffffffffffffffffffffffffffffffffffffffff16905083565b600160009054906101000a900473ffffffffffffffffffffffffffffffffffffffff1681565b6000600380549050905090565b6060604051908101604052808481526020018381526020018273ffffffffffffffffffffffffffffffffffffffff16815250600460008373ffffffffffffffffffffffffffffffffffffffff1673ffffffffffffffffffffffffffffffffffffffff1681526020019081526020016000206000820151816000019080519060200190610f549291906119f3565b506020820151816001019080519060200190610f719291906119f3565b5060408201518160020160006101000a81548173ffffffffffffffffffffffffffffffffffffffff021916908373ffffffffffffffffffffffffffffffffffffffff16021790555090505060038190806001815401808255809150509060018203906000526020600020016000909192909190916101000a81548173ffffffffffffffffffffffffffffffffffffffff021916908373ffffffffffffffffffffffffffffffffffffffff16021790555050505050565b60016006600082825401925050819055506080604051908101604052806006548152602001848152602001838152602001828152506007600060065481526020019081526020016000206000820151816000015560208201518160010190805190602001906110979291906119f3565b506040820151816002015560608201518160030190805190602001906110be9291906119f3565b50905050505050565b806005838154811015156110d757fe5b906000526020600020906007020160030190805190602001906110fb929190611973565b506040805190810160405280600481526020017f747275650000000000000000000000000000000000000000000000000000000081525060058381548110151561114157fe5b906000526020600020906007020160040160405180807f51430000000000000000000000000000000000000000000000000000000000008152506002019050908152602001604051809103902090805190602001906111a1929190611973565b5060016005838154811015156111b357fe5b906000526020600020906007020160060160006101000a81548160ff0219169083151502179055505050565b6007602052806000526040600020600091509050806000015490806001018054600181600116156101000203166002900480601f0160208091040260200160405190810160405280929190818152602001828054600181600116156101000203166002900480156112915780601f1061126657610100808354040283529160200191611291565b820191906000526020600020905b81548152906001019060200180831161127457829003601f168201915b505050505090806002015490806003018054600181600116156101000203166002900480601f0160208091040260200160405190810160405280929190818152602001828054600181600116156101000203166002900480156113355780601f1061130a57610100808354040283529160200191611335565b820191906000526020600020905b81548152906001019060200180831161131857829003601f168201915b5050505050905084565b600160009054906101000a900473ffffffffffffffffffffffffffffffffffffffff1673ffffffffffffffffffffffffffffffffffffffff163373ffffffffffffffffffffffffffffffffffffffff16141515611404576040517f08c379a00000000000000000000000000000000000000000000000000000000081526004018080602001828103825260178152602001807f596f7520617265206e6f7420617574686f72697a65642e00000000000000000081525060200191505060405180910390fd5b61140c611a73565b60c0604051908101604052806001600580549050038152602001848152602001838152602001602060405190810160405280600081525081526020016040805190810160405280600781526020017f54616e6e696e67000000000000000000000000000000000000000000000000008152508152602001600015158152509050600581908060018154018082558091505090600182039060005260206000209060070201600090919290919091506000820151816000015560208201518160010190805190602001906114e09291906119f3565b506040820151816002015560608201518160030190805190602001906115079291906119f3565b5060808201518160050190805190602001906115249291906119f3565b5060a08201518160060160006101000a81548160ff0219169083151502179055505050506001600260008282540192505081905550505050565b60065481565b6040805190810160405280600981526020017f506f6c697368696e6700000000000000000000000000000000000000000000008152506005828154811015156115a957fe5b906000526020600020906007020160050190805190602001906115cd929190611973565b506040805190810160405280600481526020017f747275650000000000000000000000000000000000000000000000000000000081525060058281548110151561161357fe5b906000526020600020906007020160040160405180807f50726570617261746f7279205374616765000000000000000000000000000000815250601101905090815260200160405180910390209080519060200190611673929190611973565b5050565b60058181548110151561168657fe5b9060005260206000209060070201600091509050806000015490806001018054600181600116156101000203166002900480601f0160208091040260200160405190810160405280929190818152602001828054600181600116156101000203166002900480156117385780601f1061170d57610100808354040283529160200191611738565b820191906000526020600020905b81548152906001019060200180831161171b57829003601f168201915b505050505090806002015490806003018054600181600116156101000203166002900480601f0160208091040260200160405190810160405280929190818152602001828054600181600116156101000203166002900480156117dc5780601f106117b1576101008083540402835291602001916117dc565b820191906000526020600020905b8154815290600101906020018083116117bf57829003601f168201915b505050505090806005018054600181600116156101000203166002900480601f01602080910402602001604051908101604052809291908181526020018280546001816001161561010002031660029004801561187a5780601f1061184f5761010080835404028352916020019161187a565b820191906000526020600020905b81548152906001019060200180831161185d57829003601f168201915b5050505050908060060160009054906101000a900460ff16905086565b60008054600181600116156101000203166002900480601f01602080910402602001604051908101604052809291908181526020018280546001816001161561010002031660029004801561192d5780601f106119025761010080835404028352916020019161192d565b820191906000526020600020905b81548152906001019060200180831161191057829003601f168201915b505050505081565b60038181548110151561194457fe5b906000526020600020016000915054906101000a900473ffffffffffffffffffffffffffffffffffffffff1681565b828054600181600116156101000203166002900490600052602060002090601f016020900481019282601f106119b457805160ff19168380011785556119e2565b828001600101855582156119e2579182015b828111156119e15782518255916020019190600101906119c6565b5b5090506119ef9190611aac565b5090565b828054600181600116156101000203166002900490600052602060002090601f016020900481019282601f10611a3457805160ff1916838001178555611a62565b82800160010185558215611a62579182015b82811115611a61578251825591602001919060010190611a46565b5b509050611a6f9190611aac565b5090565b60c06040519081016040528060008152602001606081526020016000815260200160608152602001606081526020016000151581525090565b611ace91905b80821115611aca576000816000905550600101611ab2565b5090565b9056fea165627a7a7230582032bc69af0369493ca702d248762f81b5f209e8b7e8b31c1eab739ecd44cae9190029",
  "source": "pragma solidity >=0.4.21 <0.7.0;\n\ncontract Supplier {\n\n    struct Batch{\n        uint uid;\n        string color;\n        uint area;\n        string image_hash;\n        mapping(string => string) steps;\n        string cur_step;\n        bool completed;\n    }\n\n    struct Order{\n        uint order_id;\n        string color;\n        uint batch_id;\n        string[] completed_steps;\n        string cur_step;\n        uint area;\n        bool shipped;\n    }\n\n    struct Worker{\n        string fname;\n        string lname;\n        address addr;\n    }\n\n    struct Design{\n        uint id;\n        string name;\n        uint price;\n        string image_hash;\n    }\n\n    string public supp_name;\n    address public manager;\n    uint public total_batches;\n    address[] public workers_lookup;\n    mapping(address => Worker) public workers;\n    Batch[] public batches;\n    uint public total_design=0;\n    mapping(uint => Design) public designs;\n\n    constructor(string memory _name, address _manager) public {\n        supp_name = _name;\n        manager = _manager;\n    }\n\n    function add_worker(string memory _fname, string memory _lname, address _addr) public {\n        workers[_addr] = Worker({\n            fname: _fname,\n            lname: _lname,\n            addr: _addr\n        });\n        workers_lookup.push(_addr);\n    } \n\n    function get_num_workers() public view returns(uint){\n        return workers_lookup.length;\n    }\n\n    function add_design(string memory _name, uint _price, string memory _image_hash) public{\n        total_design += 1;\n        designs[total_design] = Design({\n            id: total_design,\n            name: _name,\n            price: _price,\n            image_hash: _image_hash\n        });\n        \n    }\n\n    function create_batch(string memory _color, uint _area) public onlyManager{\n        Batch memory new_batch = Batch({\n            uid: batches.length-1,\n            color: _color,\n            area: _area,\n            image_hash: '',\n            cur_step: 'Tanning',\n            completed: false\n        });\n        batches.push(new_batch);\n        total_batches += 1;\n    }\n\n    function transfer_to_tanning(uint batch_id) public{\n        batches[batch_id].cur_step = \"Polishing\";\n        batches[batch_id].steps['Preparatory Stage'] = 'true';\n    }\n\n    function transfer_to_QC(uint batch_id) public{\n        batches[batch_id].cur_step = \"QC\";\n        batches[batch_id].steps[\"Polishing\"] = \"true\";\n    }\n\n    function quality_check(uint batch_id, string memory img_hash) public{\n        batches[batch_id].image_hash = img_hash;\n        batches[batch_id].steps[\"QC\"] = \"true\";\n        batches[batch_id].completed = true;\n    }\n\n    modifier onlyManager(){\n        require(msg.sender == manager,'You are not authorized.');\n        _;\n    }\n\n}",
  "sourcePath": "/Users/ratikvig/Developer/blockchain/sisl_supplychain/contracts/Supplier.sol",
  "compiler": {
    "name": "solc",
    "version": "0.5.0+commit.1d4f565a.Emscripten.clang"
  },
  "schemaVersion": "3.0.1",
  "updatedAt": "2020-04-29T14:30:08.502Z",
  "devdoc": {
    "methods": {}
  },
  "userdoc": {
    "methods": {}
  }
}