{
  "contractName": "Supplier",
  "abi": [
    {
      "constant": true,
      "inputs": [],
      "name": "total_batches",
      "outputs": [
        {
          "name": "",
          "type": "uint256"
        }
      ],
      "payable": false,
      "stateMutability": "view",
      "type": "function"
    },
    {
      "constant": true,
      "inputs": [
        {
          "name": "",
          "type": "address"
        }
      ],
      "name": "workers",
      "outputs": [
        {
          "name": "fname",
          "type": "string"
        },
        {
          "name": "lname",
          "type": "string"
        }
      ],
      "payable": false,
      "stateMutability": "view",
      "type": "function"
    },
    {
      "constant": true,
      "inputs": [],
      "name": "manager",
      "outputs": [
        {
          "name": "",
          "type": "address"
        }
      ],
      "payable": false,
      "stateMutability": "view",
      "type": "function"
    },
    {
      "constant": true,
      "inputs": [
        {
          "name": "",
          "type": "uint256"
        }
      ],
      "name": "batches",
      "outputs": [
        {
          "name": "uid",
          "type": "uint256"
        },
        {
          "name": "color",
          "type": "string"
        },
        {
          "name": "area",
          "type": "uint256"
        },
        {
          "name": "image_hash",
          "type": "string"
        },
        {
          "name": "next_step",
          "type": "string"
        },
        {
          "name": "completed",
          "type": "bool"
        }
      ],
      "payable": false,
      "stateMutability": "view",
      "type": "function"
    },
    {
      "constant": true,
      "inputs": [],
      "name": "supp_name",
      "outputs": [
        {
          "name": "",
          "type": "string"
        }
      ],
      "payable": false,
      "stateMutability": "view",
      "type": "function"
    },
    {
      "constant": true,
      "inputs": [
        {
          "name": "",
          "type": "uint256"
        }
      ],
      "name": "workers_lookup",
      "outputs": [
        {
          "name": "",
          "type": "address"
        }
      ],
      "payable": false,
      "stateMutability": "view",
      "type": "function"
    },
    {
      "inputs": [
        {
          "name": "_name",
          "type": "string"
        },
        {
          "name": "_manager",
          "type": "address"
        }
      ],
      "payable": false,
      "stateMutability": "nonpayable",
      "type": "constructor"
    },
    {
      "constant": false,
      "inputs": [
        {
          "name": "_addr",
          "type": "address"
        }
      ],
      "name": "add_worker",
      "outputs": [],
      "payable": false,
      "stateMutability": "nonpayable",
      "type": "function"
    },
    {
      "constant": true,
      "inputs": [],
      "name": "get_num_workers",
      "outputs": [
        {
          "name": "",
          "type": "uint256"
        }
      ],
      "payable": false,
      "stateMutability": "view",
      "type": "function"
    },
    {
      "constant": false,
      "inputs": [
        {
          "name": "_color",
          "type": "string"
        },
        {
          "name": "_area",
          "type": "uint256"
        }
      ],
      "name": "create_batch",
      "outputs": [],
      "payable": false,
      "stateMutability": "nonpayable",
      "type": "function"
    },
    {
      "constant": false,
      "inputs": [
        {
          "name": "batch_id",
          "type": "uint256"
        }
      ],
      "name": "transfer_to_tanning",
      "outputs": [],
      "payable": false,
      "stateMutability": "nonpayable",
      "type": "function"
    },
    {
      "constant": false,
      "inputs": [
        {
          "name": "batch_id",
          "type": "uint256"
        }
      ],
      "name": "transfer_to_QC",
      "outputs": [],
      "payable": false,
      "stateMutability": "nonpayable",
      "type": "function"
    },
    {
      "constant": false,
      "inputs": [
        {
          "name": "batch_id",
          "type": "uint256"
        },
        {
          "name": "img_hash",
          "type": "string"
        }
      ],
      "name": "quality_check",
      "outputs": [],
      "payable": false,
      "stateMutability": "nonpayable",
      "type": "function"
    }
  ],
  "bytecode": "0x60806040523480156200001157600080fd5b50604051620014be380380620014be833981018060405260408110156200003757600080fd5b8101908080516401000000008111156200005057600080fd5b828101905060208101848111156200006757600080fd5b81518560018202830111640100000000821117156200008557600080fd5b5050929190602001805190602001909291905050508160009080519060200190620000b2929190620000fc565b5080600160006101000a81548173ffffffffffffffffffffffffffffffffffffffff021916908373ffffffffffffffffffffffffffffffffffffffff1602179055505050620001ab565b828054600181600116156101000203166002900490600052602060002090601f016020900481019282601f106200013f57805160ff191683800117855562000170565b8280016001018555821562000170579182015b828111156200016f57825182559160200191906001019062000152565b5b5090506200017f919062000183565b5090565b620001a891905b80821115620001a45760008160009055506001016200018a565b5090565b90565b61130380620001bb6000396000f3fe6080604052600436106100ba576000357c0100000000000000000000000000000000000000000000000000000000900463ffffffff1680630e752ff4146100bf57806316c5dc6c146100fa578063398ed13d146101255780634048a25714610176578063481c6a75146102ac578063659f993f146103035780638b0d650d1461032e578063947ca8a114610400578063b2af455c146104d2578063b32c4d8d1461050d578063b3f54500146106b2578063c7648b7214610742575b600080fd5b3480156100cb57600080fd5b506100f8600480360360208110156100e257600080fd5b81019080803590602001909291905050506107bd565b005b34801561010657600080fd5b5061010f61089f565b6040518082815260200191505060405180910390f35b34801561013157600080fd5b506101746004803603602081101561014857600080fd5b81019080803573ffffffffffffffffffffffffffffffffffffffff1690602001909291905050506108a5565b005b34801561018257600080fd5b506101c56004803603602081101561019957600080fd5b81019080803573ffffffffffffffffffffffffffffffffffffffff16906020019092919050505061090e565b604051808060200180602001838103835285818151815260200191508051906020019080838360005b838110156102095780820151818401526020810190506101ee565b50505050905090810190601f1680156102365780820380516001836020036101000a031916815260200191505b50838103825284818151815260200191508051906020019080838360005b8381101561026f578082015181840152602081019050610254565b50505050905090810190601f16801561029c5780820380516001836020036101000a031916815260200191505b5094505050505060405180910390f35b3480156102b857600080fd5b506102c1610a62565b604051808273ffffffffffffffffffffffffffffffffffffffff1673ffffffffffffffffffffffffffffffffffffffff16815260200191505060405180910390f35b34801561030f57600080fd5b50610318610a88565b6040518082815260200191505060405180910390f35b34801561033a57600080fd5b506103fe6004803603604081101561035157600080fd5b81019080803590602001909291908035906020019064010000000081111561037857600080fd5b82018360208201111561038a57600080fd5b803590602001918460018302840111640100000000831117156103ac57600080fd5b91908080601f016020809104026020016040519081016040528093929190818152602001838380828437600081840152601f19601f820116905080830192505050505050509192919290505050610a95565b005b34801561040c57600080fd5b506104d06004803603604081101561042357600080fd5b810190808035906020019064010000000081111561044057600080fd5b82018360208201111561045257600080fd5b8035906020019184600183028401116401000000008311171561047457600080fd5b91908080601f016020809104026020016040519081016040528093929190818152602001838380828437600081840152601f19601f82011690508083019250505050505050919291929080359060200190929190505050610b7c565b005b3480156104de57600080fd5b5061050b600480360360208110156104f557600080fd5b8101908080359060200190929190505050610d9b565b005b34801561051957600080fd5b506105466004803603602081101561053057600080fd5b8101908080359060200190929190505050610e7d565b6040518087815260200180602001868152602001806020018060200185151515158152602001848103845289818151815260200191508051906020019080838360005b838110156105a4578082015181840152602081019050610589565b50505050905090810190601f1680156105d15780820380516001836020036101000a031916815260200191505b50848103835287818151815260200191508051906020019080838360005b8381101561060a5780820151818401526020810190506105ef565b50505050905090810190601f1680156106375780820380516001836020036101000a031916815260200191505b50848103825286818151815260200191508051906020019080838360005b83811015610670578082015181840152602081019050610655565b50505050905090810190601f16801561069d5780820380516001836020036101000a031916815260200191505b50995050505050505050505060405180910390f35b3480156106be57600080fd5b506106c761109d565b6040518080602001828103825283818151815260200191508051906020019080838360005b838110156107075780820151818401526020810190506106ec565b50505050905090810190601f1680156107345780820380516001836020036101000a031916815260200191505b509250505060405180910390f35b34801561074e57600080fd5b5061077b6004803603602081101561076557600080fd5b810190808035906020019092919050505061113b565b604051808273ffffffffffffffffffffffffffffffffffffffff1673ffffffffffffffffffffffffffffffffffffffff16815260200191505060405180910390f35b6040805190810160405280600281526020017f514300000000000000000000000000000000000000000000000000000000000081525060058281548110151561080257fe5b90600052602060002090600702016005019080519060200190610826929190611179565b50600160058281548110151561083857fe5b906000526020600020906007020160040160405180807f506f6c697368696e6700000000000000000000000000000000000000000000008152506009019050908152602001604051809103902060006101000a81548160ff02191690831515021790555050565b60025481565b60038190806001815401808255809150509060018203906000526020600020016000909192909190916101000a81548173ffffffffffffffffffffffffffffffffffffffff021916908373ffffffffffffffffffffffffffffffffffffffff1602179055505050565b6004602052806000526040600020600091509050806000018054600181600116156101000203166002900480601f0160208091040260200160405190810160405280929190818152602001828054600181600116156101000203166002900480156109ba5780601f1061098f576101008083540402835291602001916109ba565b820191906000526020600020905b81548152906001019060200180831161099d57829003601f168201915b505050505090806001018054600181600116156101000203166002900480601f016020809104026020016040519081016040528092919081815260200182805460018160011615610100020316600290048015610a585780601f10610a2d57610100808354040283529160200191610a58565b820191906000526020600020905b815481529060010190602001808311610a3b57829003601f168201915b5050505050905082565b600160009054906101000a900473ffffffffffffffffffffffffffffffffffffffff1681565b6000600380549050905090565b80600583815481101515610aa557fe5b90600052602060002090600702016003019080519060200190610ac9929190611179565b506001600583815481101515610adb57fe5b906000526020600020906007020160040160405180807f51430000000000000000000000000000000000000000000000000000000000008152506002019050908152602001604051809103902060006101000a81548160ff0219169083151502179055506001600583815481101515610b5057fe5b906000526020600020906007020160060160006101000a81548160ff0219169083151502179055505050565b600160009054906101000a900473ffffffffffffffffffffffffffffffffffffffff1673ffffffffffffffffffffffffffffffffffffffff163373ffffffffffffffffffffffffffffffffffffffff16141515610c41576040517f08c379a00000000000000000000000000000000000000000000000000000000081526004018080602001828103825260178152602001807f596f7520617265206e6f7420617574686f72697a65642e00000000000000000081525060200191505060405180910390fd5b610c496111f9565b60c0604051908101604052806001600580549050038152602001848152602001838152602001602060405190810160405280600081525081526020016040805190810160405280600781526020017f54616e6e696e6700000000000000000000000000000000000000000000000000815250815260200160001515815250905060058190806001815401808255809150509060018203906000526020600020906007020160009091929091909150600082015181600001556020820151816001019080519060200190610d1d929190611232565b50604082015181600201556060820151816003019080519060200190610d44929190611232565b506080820151816005019080519060200190610d61929190611232565b5060a08201518160060160006101000a81548160ff0219169083151502179055505050506001600260008282540192505081905550505050565b6040805190810160405280600981526020017f506f6c697368696e670000000000000000000000000000000000000000000000815250600582815481101515610de057fe5b90600052602060002090600702016005019080519060200190610e04929190611179565b506001600582815481101515610e1657fe5b906000526020600020906007020160040160405180807f50726570617261746f72792053746167650000000000000000000000000000008152506011019050908152602001604051809103902060006101000a81548160ff02191690831515021790555050565b600581815481101515610e8c57fe5b9060005260206000209060070201600091509050806000015490806001018054600181600116156101000203166002900480601f016020809104026020016040519081016040528092919081815260200182805460018160011615610100020316600290048015610f3e5780601f10610f1357610100808354040283529160200191610f3e565b820191906000526020600020905b815481529060010190602001808311610f2157829003601f168201915b505050505090806002015490806003018054600181600116156101000203166002900480601f016020809104026020016040519081016040528092919081815260200182805460018160011615610100020316600290048015610fe25780601f10610fb757610100808354040283529160200191610fe2565b820191906000526020600020905b815481529060010190602001808311610fc557829003601f168201915b505050505090806005018054600181600116156101000203166002900480601f0160208091040260200160405190810160405280929190818152602001828054600181600116156101000203166002900480156110805780601f1061105557610100808354040283529160200191611080565b820191906000526020600020905b81548152906001019060200180831161106357829003601f168201915b5050505050908060060160009054906101000a900460ff16905086565b60008054600181600116156101000203166002900480601f0160208091040260200160405190810160405280929190818152602001828054600181600116156101000203166002900480156111335780601f1061110857610100808354040283529160200191611133565b820191906000526020600020905b81548152906001019060200180831161111657829003601f168201915b505050505081565b60038181548110151561114a57fe5b906000526020600020016000915054906101000a900473ffffffffffffffffffffffffffffffffffffffff1681565b828054600181600116156101000203166002900490600052602060002090601f016020900481019282601f106111ba57805160ff19168380011785556111e8565b828001600101855582156111e8579182015b828111156111e75782518255916020019190600101906111cc565b5b5090506111f591906112b2565b5090565b60c06040519081016040528060008152602001606081526020016000815260200160608152602001606081526020016000151581525090565b828054600181600116156101000203166002900490600052602060002090601f016020900481019282601f1061127357805160ff19168380011785556112a1565b828001600101855582156112a1579182015b828111156112a0578251825591602001919060010190611285565b5b5090506112ae91906112b2565b5090565b6112d491905b808211156112d05760008160009055506001016112b8565b5090565b9056fea165627a7a72305820a1adad129d0bfb5288edf823be167487831124325d042087dff50e05ed29e58d0029",
  "source": "pragma solidity >=0.4.21 <0.7.0;\n\ncontract Supplier {\n\n    struct Batch{\n        uint uid;\n        string color;\n        uint area;\n        string image_hash;\n        mapping(string => bool) steps;\n        string next_step;\n        bool completed;\n    }\n\n    struct Order{\n        uint order_id;\n        string color;\n        uint batch_id;\n        string[] completed_steps;\n        string next_step;\n        uint area;\n        bool shipped;\n    }\n\n    struct Worker{\n        string fname;\n        string lname;\n    }\n\n    string public supp_name;\n    address public manager;\n    uint public total_batches;\n    address[] public workers_lookup;\n    mapping(address => Worker) public workers;\n    Batch[] public batches;\n\n    constructor(string memory _name, address _manager) public {\n        supp_name = _name;\n        manager = _manager;\n    }\n\n    function add_worker(address _addr) public {\n        workers_lookup.push(_addr);\n    } \n\n    function get_num_workers() public view returns(uint){\n        return workers_lookup.length;\n    }\n\n    function create_batch(string memory _color, uint _area) public onlyManager{\n        Batch memory new_batch = Batch({\n            uid: batches.length-1,\n            color: _color,\n            area: _area,\n            image_hash: '',\n            next_step: 'Tanning',\n            completed: false\n        });\n        batches.push(new_batch);\n        total_batches += 1;\n    }\n\n    function transfer_to_tanning(uint batch_id) public{\n        batches[batch_id].next_step = \"Polishing\";\n        batches[batch_id].steps['Preparatory Stage'] = true;\n    }\n\n    function transfer_to_QC(uint batch_id) public{\n        batches[batch_id].next_step = \"QC\";\n        batches[batch_id].steps[\"Polishing\"] = true;\n    }\n\n    function quality_check(uint batch_id, string memory img_hash) public{\n        batches[batch_id].image_hash = img_hash;\n        batches[batch_id].steps[\"QC\"] = true;\n        batches[batch_id].completed = true;\n    }\n\n    modifier onlyManager(){\n        require(msg.sender == manager,'You are not authorized.');\n        _;\n    }\n\n}",
  "sourcePath": "/Users/ratikvig/Developer/blockchain/sisl_supplychain/contracts/Supplier.sol",
  "compiler": {
    "name": "solc",
    "version": "0.5.0+commit.1d4f565a.Emscripten.clang"
  },
  "schemaVersion": "3.0.1",
  "updatedAt": "2020-04-21T09:44:35.850Z",
  "devdoc": {
    "methods": {}
  },
  "userdoc": {
    "methods": {}
  }
}