{
  "contractName": "SupplierFactory",
  "abi": [
    {
      "constant": true,
      "inputs": [],
      "name": "num_suppliers",
      "outputs": [
        {
          "name": "",
          "type": "uint256"
        }
      ],
      "payable": false,
      "stateMutability": "view",
      "type": "function",
      "signature": "0xe3c569a5"
    },
    {
      "constant": true,
      "inputs": [
        {
          "name": "",
          "type": "uint256"
        }
      ],
      "name": "existing_suppliers",
      "outputs": [
        {
          "name": "",
          "type": "address"
        }
      ],
      "payable": false,
      "stateMutability": "view",
      "type": "function",
      "signature": "0xfc5a1150"
    },
    {
      "constant": false,
      "inputs": [
        {
          "name": "_name",
          "type": "string"
        }
      ],
      "name": "create_supplier",
      "outputs": [],
      "payable": false,
      "stateMutability": "nonpayable",
      "type": "function",
      "signature": "0x919abec6"
    }
  ],
  "bytecode": "0x6080604052600060015534801561001557600080fd5b5061214a806100256000396000f3fe608060405260043610610057576000357c0100000000000000000000000000000000000000000000000000000000900463ffffffff168063919abec61461005c578063e3c569a514610124578063fc5a11501461014f575b600080fd5b34801561006857600080fd5b506101226004803603602081101561007f57600080fd5b810190808035906020019064010000000081111561009c57600080fd5b8201836020820111156100ae57600080fd5b803590602001918460018302840111640100000000831117156100d057600080fd5b91908080601f016020809104026020016040519081016040528093929190818152602001838380828437600081840152601f19601f8201169050808301925050505050505091929192905050506101ca565b005b34801561013057600080fd5b50610139610311565b6040518082815260200191505060405180910390f35b34801561015b57600080fd5b506101886004803603602081101561017257600080fd5b8101908080359060200190929190505050610317565b604051808273ffffffffffffffffffffffffffffffffffffffff1673ffffffffffffffffffffffffffffffffffffffff16815260200191505060405180910390f35b600081336101d6610355565b80806020018373ffffffffffffffffffffffffffffffffffffffff1673ffffffffffffffffffffffffffffffffffffffff168152602001828103825284818151815260200191508051906020019080838360005b8381101561024557808201518184015260208101905061022a565b50505050905090810190601f1680156102725780820380516001836020036101000a031916815260200191505b509350505050604051809103906000f080158015610294573d6000803e3d6000fd5b50905060008190806001815401808255809150509060018203906000526020600020016000909192909190916101000a81548173ffffffffffffffffffffffffffffffffffffffff021916908373ffffffffffffffffffffffffffffffffffffffff16021790555050600180600082825401925050819055505050565b60015481565b60008181548110151561032657fe5b906000526020600020016000915054906101000a900473ffffffffffffffffffffffffffffffffffffffff1681565b604051611db9806103668339019056fe6080604052600060025560006006553480156200001b57600080fd5b5060405162001db938038062001db9833981018060405260408110156200004157600080fd5b8101908080516401000000008111156200005a57600080fd5b828101905060208101848111156200007157600080fd5b81518560018202830111640100000000821117156200008f57600080fd5b5050929190602001805190602001909291905050508160009080519060200190620000bc92919062000106565b5080600160006101000a81548173ffffffffffffffffffffffffffffffffffffffff021916908373ffffffffffffffffffffffffffffffffffffffff1602179055505050620001b5565b828054600181600116156101000203166002900490600052602060002090601f016020900481019282601f106200014957805160ff19168380011785556200017a565b828001600101855582156200017a579182015b82811115620001795782518255916020019190600101906200015c565b5b5090506200018991906200018d565b5090565b620001b291905b80821115620001ae57600081600090555060010162000194565b5090565b90565b611bf480620001c56000396000f3fe6080604052600436106100fc576000357c0100000000000000000000000000000000000000000000000000000000900463ffffffff1680630e752ff414610101578063103f84e01461013c57806316c5dc6c146101775780634048a257146101a2578063481c6a751461030b57806361d0c20b14610362578063659f993f146103f25780636b1696651461041d578063868b86ed1461059c5780638b0d650d1461070557806390ac11a3146107d7578063940ba2cd14610905578063947ca8a1146109955780639dc9b60114610a67578063b32c4d8d14610a92578063b3f5450014610bd5578063c7648b7214610c65578063ef753a9b14610ce0575b600080fd5b34801561010d57600080fd5b5061013a6004803603602081101561012457600080fd5b8101908080359060200190929190505050610d25565b005b34801561014857600080fd5b506101756004803603602081101561015f57600080fd5b8101908080359060200190929190505050610dec565b005b34801561018357600080fd5b5061018c610eb3565b6040518082815260200191505060405180910390f35b3480156101ae57600080fd5b506101f1600480360360208110156101c557600080fd5b81019080803573ffffffffffffffffffffffffffffffffffffffff169060200190929190505050610eb9565b6040518080602001806020018473ffffffffffffffffffffffffffffffffffffffff1673ffffffffffffffffffffffffffffffffffffffff168152602001838103835286818151815260200191508051906020019080838360005b8381101561026757808201518184015260208101905061024c565b50505050905090810190601f1680156102945780820380516001836020036101000a031916815260200191505b50838103825285818151815260200191508051906020019080838360005b838110156102cd5780820151818401526020810190506102b2565b50505050905090810190601f1680156102fa5780820380516001836020036101000a031916815260200191505b509550505050505060405180910390f35b34801561031757600080fd5b50610320611033565b604051808273ffffffffffffffffffffffffffffffffffffffff1673ffffffffffffffffffffffffffffffffffffffff16815260200191505060405180910390f35b34801561036e57600080fd5b5061039b6004803603602081101561038557600080fd5b8101908080359060200190929190505050611059565b6040518080602001828103825283818151815260200191508051906020019060200280838360005b838110156103de5780820151818401526020810190506103c3565b505050509050019250505060405180910390f35b3480156103fe57600080fd5b5061040761110c565b6040518082815260200191505060405180910390f35b34801561042957600080fd5b5061059a6004803603606081101561044057600080fd5b810190808035906020019064010000000081111561045d57600080fd5b82018360208201111561046f57600080fd5b8035906020019184600183028401116401000000008311171561049157600080fd5b91908080601f016020809104026020016040519081016040528093929190818152602001838380828437600081840152601f19601f820116905080830192505050505050509192919290803590602001906401000000008111156104f457600080fd5b82018360208201111561050657600080fd5b8035906020019184600183028401116401000000008311171561052857600080fd5b91908080601f016020809104026020016040519081016040528093929190818152602001838380828437600081840152601f19601f820116905080830192505050505050509192919290803573ffffffffffffffffffffffffffffffffffffffff169060200190929190505050611119565b005b3480156105a857600080fd5b50610703600480360360608110156105bf57600080fd5b81019080803590602001906401000000008111156105dc57600080fd5b8201836020820111156105ee57600080fd5b8035906020019184600183028401116401000000008311171561061057600080fd5b91908080601f016020809104026020016040519081016040528093929190818152602001838380828437600081840152601f19601f820116905080830192505050505050509192919290803590602001909291908035906020019064010000000081111561067d57600080fd5b82018360208201111561068f57600080fd5b803590602001918460018302840111640100000000831117156106b157600080fd5b91908080601f016020809104026020016040519081016040528093929190818152602001838380828437600081840152601f19601f820116905080830192505050505050509192919290505050611279565b005b34801561071157600080fd5b506107d56004803603604081101561072857600080fd5b81019080803590602001909291908035906020019064010000000081111561074f57600080fd5b82018360208201111561076157600080fd5b8035906020019184600183028401116401000000008311171561078357600080fd5b91908080601f016020809104026020016040519081016040528093929190818152602001838380828437600081840152601f19601f820116905080830192505050505050509192919290505050611319565b005b3480156107e357600080fd5b50610810600480360360208110156107fa57600080fd5b810190808035906020019092919050505061140b565b604051808581526020018060200184815260200180602001838103835286818151815260200191508051906020019080838360005b83811015610860578082015181840152602081019050610845565b50505050905090810190601f16801561088d5780820380516001836020036101000a031916815260200191505b50838103825284818151815260200191508051906020019080838360005b838110156108c65780820151818401526020810190506108ab565b50505050905090810190601f1680156108f35780820380516001836020036101000a031916815260200191505b50965050505050505060405180910390f35b34801561091157600080fd5b5061093e6004803603602081101561092857600080fd5b810190808035906020019092919050505061156b565b6040518080602001828103825283818151815260200191508051906020019060200280838360005b83811015610981578082015181840152602081019050610966565b505050509050019250505060405180910390f35b3480156109a157600080fd5b50610a65600480360360408110156109b857600080fd5b81019080803590602001906401000000008111156109d557600080fd5b8201836020820111156109e757600080fd5b80359060200191846001830284011164010000000083111715610a0957600080fd5b91908080601f016020809104026020016040519081016040528093929190818152602001838380828437600081840152601f19601f82011690508083019250505050505050919291929080359060200190929190505050611659565b005b348015610a7357600080fd5b50610a7c61173b565b6040518082815260200191505060405180910390f35b348015610a9e57600080fd5b50610acb60048036036020811015610ab557600080fd5b8101908080359060200190929190505050611741565b604051808881526020018060200180602001878152602001868152602001858152602001848152602001838103835289818151815260200191508051906020019080838360005b83811015610b2d578082015181840152602081019050610b12565b50505050905090810190601f168015610b5a5780820380516001836020036101000a031916815260200191505b50838103825288818151815260200191508051906020019080838360005b83811015610b93578082015181840152602081019050610b78565b50505050905090810190601f168015610bc05780820380516001836020036101000a031916815260200191505b50995050505050505050505060405180910390f35b348015610be157600080fd5b50610bea6118b3565b6040518080602001828103825283818151815260200191508051906020019080838360005b83811015610c2a578082015181840152602081019050610c0f565b50505050905090810190601f168015610c575780820380516001836020036101000a031916815260200191505b509250505060405180910390f35b348015610c7157600080fd5b50610c9e60048036036020811015610c8857600080fd5b8101908080359060200190929190505050611951565b604051808273ffffffffffffffffffffffffffffffffffffffff1673ffffffffffffffffffffffffffffffffffffffff16815260200191505060405180910390f35b348015610cec57600080fd5b50610d2360048036036040811015610d0357600080fd5b81019080803590602001909291908035906020019092919050505061198f565b005b6002600360008381526020019081526020016000206008018190555060016003600083815260200190815260200160002060060160006001815260200190815260200160002060006101000a81548160ff021916908315150217905550336003600083815260200190815260200160002060070160006001815260200190815260200160002060006101000a81548173ffffffffffffffffffffffffffffffffffffffff021916908373ffffffffffffffffffffffffffffffffffffffff16021790555050565b60016003600083815260200190815260200160002060060160006003815260200190815260200160002060006101000a81548160ff021916908315150217905550336003600083815260200190815260200160002060070160006003815260200190815260200160002060006101000a81548173ffffffffffffffffffffffffffffffffffffffff021916908373ffffffffffffffffffffffffffffffffffffffff1602179055506004600360008381526020019081526020016000206008018190555050565b60025481565b6005602052806000526040600020600091509050806000018054600181600116156101000203166002900480601f016020809104026020016040519081016040528092919081815260200182805460018160011615610100020316600290048015610f655780601f10610f3a57610100808354040283529160200191610f65565b820191906000526020600020905b815481529060010190602001808311610f4857829003601f168201915b505050505090806001018054600181600116156101000203166002900480601f0160208091040260200160405190810160405280929190818152602001828054600181600116156101000203166002900480156110035780601f10610fd857610100808354040283529160200191611003565b820191906000526020600020905b815481529060010190602001808311610fe657829003601f168201915b5050505050908060020160009054906101000a900473ffffffffffffffffffffffffffffffffffffffff16905083565b600160009054906101000a900473ffffffffffffffffffffffffffffffffffffffff1681565b606080600460405190808252806020026020018201604052801561108c5781602001602082028038833980820191505090505b50905060008090505b60048110156111025760036000858152602001908152602001600020600601600082815260200190815260200160002060009054906101000a900460ff1682828151811015156110e157fe5b90602001906020020190151590811515815250508080600101915050611095565b5080915050919050565b6000600480549050905090565b6060604051908101604052808481526020018381526020018273ffffffffffffffffffffffffffffffffffffffff16815250600560008373ffffffffffffffffffffffffffffffffffffffff1673ffffffffffffffffffffffffffffffffffffffff16815260200190815260200160002060008201518160000190805190602001906111a6929190611aa3565b5060208201518160010190805190602001906111c3929190611aa3565b5060408201518160020160006101000a81548173ffffffffffffffffffffffffffffffffffffffff021916908373ffffffffffffffffffffffffffffffffffffffff16021790555090505060048190806001815401808255809150509060018203906000526020600020016000909192909190916101000a81548173ffffffffffffffffffffffffffffffffffffffff021916908373ffffffffffffffffffffffffffffffffffffffff16021790555050505050565b60016006600082825401925050819055506080604051908101604052806006548152602001848152602001838152602001828152506007600060065481526020019081526020016000206000820151816000015560208201518160010190805190602001906112e9929190611aa3565b50604082015181600201556060820151816003019080519060200190611310929190611aa3565b50905050505050565b80600360008481526020019081526020016000206001019080519060200190611343929190611b23565b5060016003600084815260200190815260200160002060060160006002815260200190815260200160002060006101000a81548160ff021916908315150217905550336003600084815260200190815260200160002060070160006002815260200190815260200160002060006101000a81548173ffffffffffffffffffffffffffffffffffffffff021916908373ffffffffffffffffffffffffffffffffffffffff1602179055506003806000848152602001908152602001600020600801819055505050565b6007602052806000526040600020600091509050806000015490806001018054600181600116156101000203166002900480601f0160208091040260200160405190810160405280929190818152602001828054600181600116156101000203166002900480156114bd5780601f10611492576101008083540402835291602001916114bd565b820191906000526020600020905b8154815290600101906020018083116114a057829003601f168201915b505050505090806002015490806003018054600181600116156101000203166002900480601f0160208091040260200160405190810160405280929190818152602001828054600181600116156101000203166002900480156115615780601f1061153657610100808354040283529160200191611561565b820191906000526020600020905b81548152906001019060200180831161154457829003601f168201915b5050505050905084565b606080600460405190808252806020026020018201604052801561159e5781602001602082028038833980820191505090505b50905060008090505b600481101561164f5760036000858152602001908152602001600020600701600082815260200190815260200160002060009054906101000a900473ffffffffffffffffffffffffffffffffffffffff16828281518110151561160657fe5b9060200190602002019073ffffffffffffffffffffffffffffffffffffffff16908173ffffffffffffffffffffffffffffffffffffffff168152505080806001019150506115a7565b5080915050919050565b600160026000828254019250508190555060e060405190810160405280600254815260200160206040519081016040528060008152508152602001838152602001828152602001600081526020016000815260200160008152506003600060025481526020019081526020016000206000820151816000015560208201518160010190805190602001906116ee929190611aa3565b50604082015181600201908051906020019061170b929190611aa3565b50606082015181600301556080820151816004015560a0820151816005015560c082015181600801559050505050565b60065481565b6003602052806000526040600020600091509050806000015490806001018054600181600116156101000203166002900480601f0160208091040260200160405190810160405280929190818152602001828054600181600116156101000203166002900480156117f35780601f106117c8576101008083540402835291602001916117f3565b820191906000526020600020905b8154815290600101906020018083116117d657829003601f168201915b505050505090806002018054600181600116156101000203166002900480601f0160208091040260200160405190810160405280929190818152602001828054600181600116156101000203166002900480156118915780601f1061186657610100808354040283529160200191611891565b820191906000526020600020905b81548152906001019060200180831161187457829003601f168201915b5050505050908060030154908060040154908060050154908060080154905087565b60008054600181600116156101000203166002900480601f0160208091040260200160405190810160405280929190818152602001828054600181600116156101000203166002900480156119495780601f1061191e57610100808354040283529160200191611949565b820191906000526020600020905b81548152906001019060200180831161192c57829003601f168201915b505050505081565b60048181548110151561196057fe5b906000526020600020016000915054906101000a900473ffffffffffffffffffffffffffffffffffffffff1681565b80600360008481526020019081526020016000206005018190555080600360008481526020019081526020016000206003015402600360008481526020019081526020016000206004018190555060016003600084815260200190815260200160002060080181905550600160036000848152602001908152602001600020600601600080815260200190815260200160002060006101000a81548160ff0219169083151502179055503360036000848152602001908152602001600020600701600080815260200190815260200160002060006101000a81548173ffffffffffffffffffffffffffffffffffffffff021916908373ffffffffffffffffffffffffffffffffffffffff1602179055505050565b828054600181600116156101000203166002900490600052602060002090601f016020900481019282601f10611ae457805160ff1916838001178555611b12565b82800160010185558215611b12579182015b82811115611b11578251825591602001919060010190611af6565b5b509050611b1f9190611ba3565b5090565b828054600181600116156101000203166002900490600052602060002090601f016020900481019282601f10611b6457805160ff1916838001178555611b92565b82800160010185558215611b92579182015b82811115611b91578251825591602001919060010190611b76565b5b509050611b9f9190611ba3565b5090565b611bc591905b80821115611bc1576000816000905550600101611ba9565b5090565b9056fea165627a7a72305820e9e4baf4e3ea5c477d4afc625f980640c6af1c5e7a1ec195c97b35b652300b400029a165627a7a7230582087b75d0ad67f09b898ba0acbe725ba32030fb889e7303e98a74e707ab78eb5420029",
  "source": "pragma solidity >=0.4.21 <0.7.0;\nimport \"./Supplier.sol\";\n\ncontract SupplierFactory{\n    address[] public existing_suppliers;\n    uint public num_suppliers=0;\n\n    function create_supplier(string memory _name) public {\n        Supplier new_supplier = new Supplier(_name, msg.sender);\n        existing_suppliers.push(address(new_supplier));\n        num_suppliers += 1;\n    }\n}\n\n",
  "sourcePath": "/Users/ratikvig/Developer/blockchain/sisl_supplychain/contracts/SupplierFactory.sol",
  "compiler": {
    "name": "solc",
    "version": "0.5.0+commit.1d4f565a.Emscripten.clang"
  },
  "schemaVersion": "3.0.1",
  "updatedAt": "2020-05-07T21:05:33.968Z",
  "devdoc": {
    "methods": {}
  },
  "userdoc": {
    "methods": {}
  }
}