{
  "contractName": "Supplier",
  "abi": [
    {
      "constant": true,
      "inputs": [],
      "name": "total_batches",
      "outputs": [
        {
          "name": "",
          "type": "uint256"
        }
      ],
      "payable": false,
      "stateMutability": "view",
      "type": "function"
    },
    {
      "constant": true,
      "inputs": [
        {
          "name": "",
          "type": "address"
        }
      ],
      "name": "workers",
      "outputs": [
        {
          "name": "fname",
          "type": "string"
        },
        {
          "name": "lname",
          "type": "string"
        },
        {
          "name": "addr",
          "type": "address"
        }
      ],
      "payable": false,
      "stateMutability": "view",
      "type": "function"
    },
    {
      "constant": true,
      "inputs": [],
      "name": "manager",
      "outputs": [
        {
          "name": "",
          "type": "address"
        }
      ],
      "payable": false,
      "stateMutability": "view",
      "type": "function"
    },
    {
      "constant": true,
      "inputs": [
        {
          "name": "",
          "type": "uint256"
        }
      ],
      "name": "batches",
      "outputs": [
        {
          "name": "uid",
          "type": "uint256"
        },
        {
          "name": "color",
          "type": "string"
        },
        {
          "name": "area",
          "type": "uint256"
        },
        {
          "name": "image_hash",
          "type": "string"
        },
        {
          "name": "next_step",
          "type": "string"
        },
        {
          "name": "completed",
          "type": "bool"
        }
      ],
      "payable": false,
      "stateMutability": "view",
      "type": "function"
    },
    {
      "constant": true,
      "inputs": [],
      "name": "supp_name",
      "outputs": [
        {
          "name": "",
          "type": "string"
        }
      ],
      "payable": false,
      "stateMutability": "view",
      "type": "function"
    },
    {
      "constant": true,
      "inputs": [
        {
          "name": "",
          "type": "uint256"
        }
      ],
      "name": "workers_lookup",
      "outputs": [
        {
          "name": "",
          "type": "address"
        }
      ],
      "payable": false,
      "stateMutability": "view",
      "type": "function"
    },
    {
      "inputs": [
        {
          "name": "_name",
          "type": "string"
        },
        {
          "name": "_manager",
          "type": "address"
        }
      ],
      "payable": false,
      "stateMutability": "nonpayable",
      "type": "constructor"
    },
    {
      "constant": false,
      "inputs": [
        {
          "name": "_fname",
          "type": "string"
        },
        {
          "name": "_lname",
          "type": "string"
        },
        {
          "name": "_addr",
          "type": "address"
        }
      ],
      "name": "add_worker",
      "outputs": [],
      "payable": false,
      "stateMutability": "nonpayable",
      "type": "function"
    },
    {
      "constant": true,
      "inputs": [],
      "name": "get_num_workers",
      "outputs": [
        {
          "name": "",
          "type": "uint256"
        }
      ],
      "payable": false,
      "stateMutability": "view",
      "type": "function"
    },
    {
      "constant": false,
      "inputs": [
        {
          "name": "_color",
          "type": "string"
        },
        {
          "name": "_area",
          "type": "uint256"
        }
      ],
      "name": "create_batch",
      "outputs": [],
      "payable": false,
      "stateMutability": "nonpayable",
      "type": "function"
    },
    {
      "constant": false,
      "inputs": [
        {
          "name": "batch_id",
          "type": "uint256"
        }
      ],
      "name": "transfer_to_tanning",
      "outputs": [],
      "payable": false,
      "stateMutability": "nonpayable",
      "type": "function"
    },
    {
      "constant": false,
      "inputs": [
        {
          "name": "batch_id",
          "type": "uint256"
        }
      ],
      "name": "transfer_to_QC",
      "outputs": [],
      "payable": false,
      "stateMutability": "nonpayable",
      "type": "function"
    },
    {
      "constant": false,
      "inputs": [
        {
          "name": "batch_id",
          "type": "uint256"
        },
        {
          "name": "img_hash",
          "type": "string"
        }
      ],
      "name": "quality_check",
      "outputs": [],
      "payable": false,
      "stateMutability": "nonpayable",
      "type": "function"
    }
  ],
  "bytecode": "0x60806040523480156200001157600080fd5b506040516200173c3803806200173c833981018060405260408110156200003757600080fd5b8101908080516401000000008111156200005057600080fd5b828101905060208101848111156200006757600080fd5b81518560018202830111640100000000821117156200008557600080fd5b5050929190602001805190602001909291905050508160009080519060200190620000b2929190620000fc565b5080600160006101000a81548173ffffffffffffffffffffffffffffffffffffffff021916908373ffffffffffffffffffffffffffffffffffffffff1602179055505050620001ab565b828054600181600116156101000203166002900490600052602060002090601f016020900481019282601f106200013f57805160ff191683800117855562000170565b8280016001018555821562000170579182015b828111156200016f57825182559160200191906001019062000152565b5b5090506200017f919062000183565b5090565b620001a891905b80821115620001a45760008160009055506001016200018a565b5090565b90565b61158180620001bb6000396000f3fe6080604052600436106100ba576000357c0100000000000000000000000000000000000000000000000000000000900463ffffffff1680630e752ff4146100bf57806316c5dc6c146100fa5780634048a25714610125578063481c6a751461028e578063659f993f146102e55780636b169665146103105780638b0d650d1461048f578063947ca8a114610561578063b2af455c14610633578063b32c4d8d1461066e578063b3f5450014610813578063c7648b72146108a3575b600080fd5b3480156100cb57600080fd5b506100f8600480360360208110156100e257600080fd5b810190808035906020019092919050505061091e565b005b34801561010657600080fd5b5061010f610a00565b6040518082815260200191505060405180910390f35b34801561013157600080fd5b506101746004803603602081101561014857600080fd5b81019080803573ffffffffffffffffffffffffffffffffffffffff169060200190929190505050610a06565b6040518080602001806020018473ffffffffffffffffffffffffffffffffffffffff1673ffffffffffffffffffffffffffffffffffffffff168152602001838103835286818151815260200191508051906020019080838360005b838110156101ea5780820151818401526020810190506101cf565b50505050905090810190601f1680156102175780820380516001836020036101000a031916815260200191505b50838103825285818151815260200191508051906020019080838360005b83811015610250578082015181840152602081019050610235565b50505050905090810190601f16801561027d5780820380516001836020036101000a031916815260200191505b509550505050505060405180910390f35b34801561029a57600080fd5b506102a3610b80565b604051808273ffffffffffffffffffffffffffffffffffffffff1673ffffffffffffffffffffffffffffffffffffffff16815260200191505060405180910390f35b3480156102f157600080fd5b506102fa610ba6565b6040518082815260200191505060405180910390f35b34801561031c57600080fd5b5061048d6004803603606081101561033357600080fd5b810190808035906020019064010000000081111561035057600080fd5b82018360208201111561036257600080fd5b8035906020019184600183028401116401000000008311171561038457600080fd5b91908080601f016020809104026020016040519081016040528093929190818152602001838380828437600081840152601f19601f820116905080830192505050505050509192919290803590602001906401000000008111156103e757600080fd5b8201836020820111156103f957600080fd5b8035906020019184600183028401116401000000008311171561041b57600080fd5b91908080601f016020809104026020016040519081016040528093929190818152602001838380828437600081840152601f19601f820116905080830192505050505050509192919290803573ffffffffffffffffffffffffffffffffffffffff169060200190929190505050610bb3565b005b34801561049b57600080fd5b5061055f600480360360408110156104b257600080fd5b8101908080359060200190929190803590602001906401000000008111156104d957600080fd5b8201836020820111156104eb57600080fd5b8035906020019184600183028401116401000000008311171561050d57600080fd5b91908080601f016020809104026020016040519081016040528093929190818152602001838380828437600081840152601f19601f820116905080830192505050505050509192919290505050610d13565b005b34801561056d57600080fd5b506106316004803603604081101561058457600080fd5b81019080803590602001906401000000008111156105a157600080fd5b8201836020820111156105b357600080fd5b803590602001918460018302840111640100000000831117156105d557600080fd5b91908080601f016020809104026020016040519081016040528093929190818152602001838380828437600081840152601f19601f82011690508083019250505050505050919291929080359060200190929190505050610dfa565b005b34801561063f57600080fd5b5061066c6004803603602081101561065657600080fd5b8101908080359060200190929190505050611019565b005b34801561067a57600080fd5b506106a76004803603602081101561069157600080fd5b81019080803590602001909291905050506110fb565b6040518087815260200180602001868152602001806020018060200185151515158152602001848103845289818151815260200191508051906020019080838360005b838110156107055780820151818401526020810190506106ea565b50505050905090810190601f1680156107325780820380516001836020036101000a031916815260200191505b50848103835287818151815260200191508051906020019080838360005b8381101561076b578082015181840152602081019050610750565b50505050905090810190601f1680156107985780820380516001836020036101000a031916815260200191505b50848103825286818151815260200191508051906020019080838360005b838110156107d15780820151818401526020810190506107b6565b50505050905090810190601f1680156107fe5780820380516001836020036101000a031916815260200191505b50995050505050505050505060405180910390f35b34801561081f57600080fd5b5061082861131b565b6040518080602001828103825283818151815260200191508051906020019080838360005b8381101561086857808201518184015260208101905061084d565b50505050905090810190601f1680156108955780820380516001836020036101000a031916815260200191505b509250505060405180910390f35b3480156108af57600080fd5b506108dc600480360360208110156108c657600080fd5b81019080803590602001909291905050506113b9565b604051808273ffffffffffffffffffffffffffffffffffffffff1673ffffffffffffffffffffffffffffffffffffffff16815260200191505060405180910390f35b6040805190810160405280600281526020017f514300000000000000000000000000000000000000000000000000000000000081525060058281548110151561096357fe5b906000526020600020906007020160050190805190602001906109879291906113f7565b50600160058281548110151561099957fe5b906000526020600020906007020160040160405180807f506f6c697368696e6700000000000000000000000000000000000000000000008152506009019050908152602001604051809103902060006101000a81548160ff02191690831515021790555050565b60025481565b6004602052806000526040600020600091509050806000018054600181600116156101000203166002900480601f016020809104026020016040519081016040528092919081815260200182805460018160011615610100020316600290048015610ab25780601f10610a8757610100808354040283529160200191610ab2565b820191906000526020600020905b815481529060010190602001808311610a9557829003601f168201915b505050505090806001018054600181600116156101000203166002900480601f016020809104026020016040519081016040528092919081815260200182805460018160011615610100020316600290048015610b505780601f10610b2557610100808354040283529160200191610b50565b820191906000526020600020905b815481529060010190602001808311610b3357829003601f168201915b5050505050908060020160009054906101000a900473ffffffffffffffffffffffffffffffffffffffff16905083565b600160009054906101000a900473ffffffffffffffffffffffffffffffffffffffff1681565b6000600380549050905090565b6060604051908101604052808481526020018381526020018273ffffffffffffffffffffffffffffffffffffffff16815250600460008373ffffffffffffffffffffffffffffffffffffffff1673ffffffffffffffffffffffffffffffffffffffff1681526020019081526020016000206000820151816000019080519060200190610c40929190611477565b506020820151816001019080519060200190610c5d929190611477565b5060408201518160020160006101000a81548173ffffffffffffffffffffffffffffffffffffffff021916908373ffffffffffffffffffffffffffffffffffffffff16021790555090505060038190806001815401808255809150509060018203906000526020600020016000909192909190916101000a81548173ffffffffffffffffffffffffffffffffffffffff021916908373ffffffffffffffffffffffffffffffffffffffff16021790555050505050565b80600583815481101515610d2357fe5b90600052602060002090600702016003019080519060200190610d479291906113f7565b506001600583815481101515610d5957fe5b906000526020600020906007020160040160405180807f51430000000000000000000000000000000000000000000000000000000000008152506002019050908152602001604051809103902060006101000a81548160ff0219169083151502179055506001600583815481101515610dce57fe5b906000526020600020906007020160060160006101000a81548160ff0219169083151502179055505050565b600160009054906101000a900473ffffffffffffffffffffffffffffffffffffffff1673ffffffffffffffffffffffffffffffffffffffff163373ffffffffffffffffffffffffffffffffffffffff16141515610ebf576040517f08c379a00000000000000000000000000000000000000000000000000000000081526004018080602001828103825260178152602001807f596f7520617265206e6f7420617574686f72697a65642e00000000000000000081525060200191505060405180910390fd5b610ec76114f7565b60c0604051908101604052806001600580549050038152602001848152602001838152602001602060405190810160405280600081525081526020016040805190810160405280600781526020017f54616e6e696e6700000000000000000000000000000000000000000000000000815250815260200160001515815250905060058190806001815401808255809150509060018203906000526020600020906007020160009091929091909150600082015181600001556020820151816001019080519060200190610f9b929190611477565b50604082015181600201556060820151816003019080519060200190610fc2929190611477565b506080820151816005019080519060200190610fdf929190611477565b5060a08201518160060160006101000a81548160ff0219169083151502179055505050506001600260008282540192505081905550505050565b6040805190810160405280600981526020017f506f6c697368696e67000000000000000000000000000000000000000000000081525060058281548110151561105e57fe5b906000526020600020906007020160050190805190602001906110829291906113f7565b50600160058281548110151561109457fe5b906000526020600020906007020160040160405180807f50726570617261746f72792053746167650000000000000000000000000000008152506011019050908152602001604051809103902060006101000a81548160ff02191690831515021790555050565b60058181548110151561110a57fe5b9060005260206000209060070201600091509050806000015490806001018054600181600116156101000203166002900480601f0160208091040260200160405190810160405280929190818152602001828054600181600116156101000203166002900480156111bc5780601f10611191576101008083540402835291602001916111bc565b820191906000526020600020905b81548152906001019060200180831161119f57829003601f168201915b505050505090806002015490806003018054600181600116156101000203166002900480601f0160208091040260200160405190810160405280929190818152602001828054600181600116156101000203166002900480156112605780601f1061123557610100808354040283529160200191611260565b820191906000526020600020905b81548152906001019060200180831161124357829003601f168201915b505050505090806005018054600181600116156101000203166002900480601f0160208091040260200160405190810160405280929190818152602001828054600181600116156101000203166002900480156112fe5780601f106112d3576101008083540402835291602001916112fe565b820191906000526020600020905b8154815290600101906020018083116112e157829003601f168201915b5050505050908060060160009054906101000a900460ff16905086565b60008054600181600116156101000203166002900480601f0160208091040260200160405190810160405280929190818152602001828054600181600116156101000203166002900480156113b15780601f10611386576101008083540402835291602001916113b1565b820191906000526020600020905b81548152906001019060200180831161139457829003601f168201915b505050505081565b6003818154811015156113c857fe5b906000526020600020016000915054906101000a900473ffffffffffffffffffffffffffffffffffffffff1681565b828054600181600116156101000203166002900490600052602060002090601f016020900481019282601f1061143857805160ff1916838001178555611466565b82800160010185558215611466579182015b8281111561146557825182559160200191906001019061144a565b5b5090506114739190611530565b5090565b828054600181600116156101000203166002900490600052602060002090601f016020900481019282601f106114b857805160ff19168380011785556114e6565b828001600101855582156114e6579182015b828111156114e55782518255916020019190600101906114ca565b5b5090506114f39190611530565b5090565b60c06040519081016040528060008152602001606081526020016000815260200160608152602001606081526020016000151581525090565b61155291905b8082111561154e576000816000905550600101611536565b5090565b9056fea165627a7a72305820ae7da4d69cbbbe2399d7d9927e74766d5ed68b9a250da998e7a72eb89379ed580029",
  "source": "pragma solidity >=0.4.21 <0.7.0;\n\ncontract Supplier {\n\n    struct Batch{\n        uint uid;\n        string color;\n        uint area;\n        string image_hash;\n        mapping(string => bool) steps;\n        string next_step;\n        bool completed;\n    }\n\n    struct Order{\n        uint order_id;\n        string color;\n        uint batch_id;\n        string[] completed_steps;\n        string next_step;\n        uint area;\n        bool shipped;\n    }\n\n    struct Worker{\n        string fname;\n        string lname;\n        address addr;\n    }\n\n    string public supp_name;\n    address public manager;\n    uint public total_batches;\n    address[] public workers_lookup;\n    mapping(address => Worker) public workers;\n    Batch[] public batches;\n\n    constructor(string memory _name, address _manager) public {\n        supp_name = _name;\n        manager = _manager;\n    }\n\n    function add_worker(string memory _fname, string memory _lname, address _addr) public {\n        workers[_addr] = Worker({\n            fname: _fname,\n            lname: _lname,\n            addr: _addr\n        });\n        workers_lookup.push(_addr);\n    } \n\n    function get_num_workers() public view returns(uint){\n        return workers_lookup.length;\n    }\n\n    function create_batch(string memory _color, uint _area) public onlyManager{\n        Batch memory new_batch = Batch({\n            uid: batches.length-1,\n            color: _color,\n            area: _area,\n            image_hash: '',\n            next_step: 'Tanning',\n            completed: false\n        });\n        batches.push(new_batch);\n        total_batches += 1;\n    }\n\n    function transfer_to_tanning(uint batch_id) public{\n        batches[batch_id].next_step = \"Polishing\";\n        batches[batch_id].steps['Preparatory Stage'] = true;\n    }\n\n    function transfer_to_QC(uint batch_id) public{\n        batches[batch_id].next_step = \"QC\";\n        batches[batch_id].steps[\"Polishing\"] = true;\n    }\n\n    function quality_check(uint batch_id, string memory img_hash) public{\n        batches[batch_id].image_hash = img_hash;\n        batches[batch_id].steps[\"QC\"] = true;\n        batches[batch_id].completed = true;\n    }\n\n    modifier onlyManager(){\n        require(msg.sender == manager,'You are not authorized.');\n        _;\n    }\n\n}",
  "sourcePath": "/Users/ratikvig/Developer/blockchain/sisl_supplychain/contracts/Supplier.sol",
  "compiler": {
    "name": "solc",
    "version": "0.5.0+commit.1d4f565a.Emscripten.clang"
  },
  "schemaVersion": "3.0.1",
  "updatedAt": "2020-04-27T06:38:49.128Z",
  "devdoc": {
    "methods": {}
  },
  "userdoc": {
    "methods": {}
  }
}